:100000000C9461000C947E000C947E000C947E0095
:100010000C947E000C947E000C947E000C947E0068
:100020000C947E000C947E000C947E000C947E0058
:100030000C947E000C947E000C947E000C947E0048
:100040000C94E9020C947E000C947E000C947E00CB
:100050000C947E000C947E000C947E000C947E0028
:100060000C947E000C947E00000000002400270009
:100070002A0000000000250028002B0000000000DE
:1000800023002600290004040404040404040202DA
:100090000202020203030303030301020408102007
:1000A0004080010204081020010204081020000012
:1000B0000007000201000003040600000000000029
:1000C000000011241FBECFEFD4E0DEBFCDBF11E092
:1000D000A0E0B1E0EAE2FBE002C005900D92AC3195
:1000E000B107D9F711E0ACE1B1E001C01D92AC322B
:1000F000B107E1F70E94E2020C9493050C94000012
:10010000A0E0B0E0E6E8F0E00C946405EC01A88023
:10011000B980CA80DB80A114B104C104D10441F4C8
:1001200084E2A82E89EDB82E8BE5C82E87E0D82E64
:10013000C601B5012DE133EF41E050E00E941F05FB
:1001400027EA31E440E050E00E9400057B018C0189
:10015000C601B5012DE133EF41E050E00E941F05DB
:10016000CA01B9012CEE34EF4FEF5FEF0E9400059A
:100170006E0D7F1D801F911F97FF04C0615070405E
:1001800080409048688379838A839B839B01AC017C
:100190005F77B901CA01CDB7DEB7EAE00C948005FC
:1001A0000E948000089580E091E00E948000089500
:1001B0006093000170930101809302019093030109
:1001C00008958091120160E070E00E94A303809185
:1001D000160160E070E00E94A3030895EF92FF9281
:1001E0001F937C01162F809110010E941C04109512
:1001F00080911401612F0E941C0480911201B701AB
:100200000E94A30380911601B7010E94A3031F91CE
:10021000FF90EF900895CF92DF92FF920F931F937C
:100220008C016B01F42E80911001642F0E941C043C
:10023000809114016F2D0E941C0480911601B80159
:100240000E94A30380911201B6010E94A3031F9193
:100250000F91FF90DF90CF900895EF92FF920F9350
:100260001F9310921D0110921C0110921F011092F9
:100270001E01809104010E946904892B31F481E000
:1002800090E090931D0180931C01809106010E94D3
:100290006904892B49F480911C0190911D010296FB
:1002A00090931D0180931C01809108010E946904B4
:1002B000892B49F480911C0190911D010496909323
:1002C0001D0180931C0180910A010E946904892B01
:1002D00031F481E090E090931F0180931E018091A2
:1002E0000C010E946904892B49F480911E019091B0
:1002F0001F01029690931F0180931E0180910E01B1
:100300000E946904892B49F480911E0190911F017C
:10031000049690931F0180931E0161E070E080E0DD
:1003200090E028EE33E040E050E00E94DA04645FA1
:100330007140804090401CF41092200103C081E085
:100340008093200180911E0190911F01892BF9F06B
:100350000E943103DC01CB010E94F80488EC90E09C
:1003600068EC70E040E00E940B0164EF71E080E017
:1003700090E00E943F0386E990E0609120010E9496
:10038000EE0064EF71E080E090E00E943F03809116
:100390001E0190911F01892B09F05BC080911C0107
:1003A00090911D01029769F48AEF90E06AEF70E086
:1003B00041E00E940B016AEF70E080E090E00E9453
:1003C0003F0380911C0190911D01019761F4809180
:1003D00016016AEF70E00E94A30364E670E080E01B
:1003E00090E00E943F0380911C0190911D010397B2
:1003F00061F48091160166E970E00E94A30364E64F
:1004000070E080E090E00E943F0380911C01909199
:100410001D01049761F4809112016AEF70E00E945F
:10042000A30364E670E080E090E00E943F038091C7
:100430001C0190911D01069761F48091120166E9FB
:1004400070E00E94A30364E670E080E090E00E9408
:100450003F0380911E0190911F01892B09F07AC002
:1004600080911C0190911D01892B09F073C061E0FE
:1004700070E080E090E027E030E040E050E00E9453
:10048000DA047093220160932101E0901801F0904A
:10049000190100911A0110911B010E943103E61607
:1004A000F7060807190708F055C00E9431037B01C1
:1004B0008C0164EF71E080E090E028EE33E040E0F2
:1004C00050E00E94DA046E0D7F1D801F911F609323
:1004D00018017093190180931A0190931B01809168
:1004E000210190912201019731F486E990E0609119
:1004F00020010E94EE00809121019091220102973B
:1005000039F486E990E064E670E041E00E940B0176
:100510008091210190912201039739F484E690E0C3
:1005200066E970E041E00E940B0180912101909109
:100530002201049739F484E690E064E670E041E03B
:100540000E940B018091210190912201059714F0E6
:100550000E94E1001F910F91FF90EF90089580910C
:10056000040160E00E94FC038091060160E00E94AB
:10057000FC038091080160E00E94FC0380910A0165
:1005800060E00E94FC0380910C0160E00E94FC038B
:1005900080910E0160E00E94FC038091100161E0F7
:1005A0000E94FC038091120161E00E94FC03809193
:1005B000140161E00E94FC038091160161E00E9439
:1005C000FC0308950E9469030E94AF020E942D015E
:1005D000FDCF1F920F920FB60F9211242F933F93CE
:1005E0008F939F93AF93BF938091270190912801A0
:1005F000A0912901B0912A0130912B010196A11DF2
:10060000B11D232F2D5F2D3720F02D570196A11DF1
:10061000B11D20932B018093270190932801A09373
:100620002901B0932A018091230190912401A09186
:100630002501B09126010196A11DB11D80932301D2
:1006400090932401A0932501B0932601BF91AF910F
:100650009F918F913F912F910F900FBE0F901F9000
:1006600018958FB7F8942091270130912801409177
:10067000290150912A018FBFB901CA010895EF9253
:10068000FF920F931F937B018C018FB7F8944091D9
:100690002701509128016091290170912A018FBF93
:1006A0002FB7F8948091270190912801A0912901FA
:1006B000B0912A012FBF841B950BA60BB70BE81630
:1006C000F9060A071B0760F71F910F91FF90EF9043
:1006D0000895789484B5826084BD84B5816084BDBA
:1006E00085B5826085BD85B5816085BDEEE6F0E0AB
:1006F000808181608083E1E8F0E080818260808396
:10070000808181608083E0E8F0E080818160808387
:10071000E1EBF0E0808184608083E0EBF0E08081B9
:1007200081608083EAE7F0E080818460808380815B
:100730008260808380818160808380818068808303
:100740001092C10008951F93CF93DF93182FEB01F0
:1007500061E00E94FC03E12FF0E0E255FF4F84913D
:10076000833051F480918000806880938000D09322
:100770008900C09388003CC0843051F4809180008F
:10078000806280938000D0938B00C0938A0030C039
:10079000813039F4209729F184B5806884BDC7BDC4
:1007A00027C0823039F42097E1F084B5806284BD9F
:1007B000C8BD1EC0863041F48091B000806880932F
:1007C000B000C093B30014C0873041F48091B000F2
:1007D00080628093B000C093B4000AC0C038D105D5
:1007E0001CF4812F60E002C0812F61E00E941C0494
:1007F000DF91CF911F910895282F30E0C9018656CF
:100800009F4FFC0194912A573F4FF901849188230F
:1008100091F0E82FF0E0EE0FFF1FE859FF4FA59190
:10082000B491662329F48C91909589238C93089533
:100830008C91892B8C930895482F50E0CA018255E2
:100840009F4FFC012491CA0186569F4FFC01949151
:100850004A575F4FFA0134913323D1F1222331F10A
:10086000233021F4809180008F7705C0243031F44B
:10087000809180008F7D8093800018C0213019F412
:1008800084B58F7704C0223021F484B58F7D84BD78
:100890000DC0263021F48091B0008F7705C027303D
:1008A00029F48091B0008F7D8093B000E32FF0E0B9
:1008B000EE0FFF1FEE58FF4FA591B491662329F468
:1008C0008C91909589238C9308958C91892B8C938E
:1008D0000895682F70E0CB0182559F4FFC01249151
:1008E000CB0186569F4FFC0144916A577F4FFB0115
:1008F0009491992319F420E030E038C0222331F19B
:10090000233021F4809180008F7705C0243031F4AA
:10091000809180008F7D8093800018C0213019F471
:1009200084B58F7704C0223021F484B58F7D84BDD7
:100930000DC0263021F48091B0008F7705C027309C
:1009400029F48091B0008F7D8093B000892F90E0D2
:10095000880F991F84589F4FFC01A591B4918C91E9
:1009600020E030E0842311F021E030E0C901089557
:10097000EF92FF920F931F937B018C01611571051C
:100980008105910529F420E030E040E050E00BC003
:100990000E94D300A80197010E941F05AC01CB0162
:1009A000DA019C01AD01B901CA011F910F91FF90BD
:1009B000EF900895EF92FF920F931F937B018C01AC
:1009C000621773078407950764F4261B370B480BDF
:1009D000590BCA01B9010E94B804E60EF71E081FA0
:1009E000191FB701C8011F910F91FF90EF90089553
:1009F000009729F0BC0180E090E00E94D8000895A3
:100A0000629FD001739FF001829FE00DF11D649FF2
:100A1000E00DF11D929FF00D839FF00D749FF00D7E
:100A2000659FF00D9927729FB00DE11DF91F639F1F
:100A3000B00DE11DF91FBD01CF011124089597FBF1
:100A4000092E05260ED057FD04D014D00AD0001C64
:100A500038F450954095309521953F4F4F4F5F4F5B
:100A60000895F6F790958095709561957F4F8F4F1B
:100A70009F4F0895A1E21A2EAA1BBB1BFD010DC0BA
:100A8000AA1FBB1FEE1FFF1FA217B307E407F5073E
:100A900020F0A21BB30BE40BF50B661F771F881F1A
:100AA000991F1A9469F760957095809590959B01B0
:100AB000AC01BD01CF0108952F923F924F925F92FA
:100AC0006F927F928F929F92AF92BF92CF92DF925E
:100AD000EF92FF920F931F93CF93DF93CDB7DEB7C3
:100AE000CA1BDB0B0FB6F894DEBF0FBECDBF099457
:100AF0002A88398848885F846E847D848C849B84AE
:100B0000AA84B984C884DF80EE80FD800C811B81BB
:100B1000AA81B981CE0FD11D0FB6F894DEBF0FBEEA
:0A0B2000CDBFED010895F894FFCF5A
:100B2A00010000000200030004000500060007009F
:0C0B3A00080009000B000A00E80300009E
:00000001FF
