:100000000C9461000C947E000C947E000C947E0095
:100010000C947E000C947E000C947E000C947E0068
:100020000C947E000C947E000C947E000C947E0058
:100030000C947E000C947E000C947E000C947E0048
:100040000C94B0020C947E000C947E000C947E0004
:100050000C947E000C947E000C947E000C947E0028
:100060000C947E000C947E00000000002400270009
:100070002A0000000000250028002B0000000000DE
:1000800023002600290004040404040404040202DA
:100090000202020203030303030301020408102007
:1000A0004080010204081020010204081020000012
:1000B0000007000201000003040600000000000029
:1000C000000011241FBECFEFD4E0DEBFCDBF11E092
:1000D000A0E0B1E0E0E5F9E002C005900D92A831A2
:1000E000B107D9F711E0A8E1B1E001C01D92AE322D
:1000F000B107E1F70E94A9020C94A6040C94000039
:1001000080910E0160E070E00E946A03809112010C
:1001100060E070E00E946A03089580910C0161E044
:100120000E94E3038091100161E00E94E3030895BF
:10013000CF92DF92FF920F931F938C016B01F42EED
:1001400080910C01642F0E94E303809110016F2DB8
:100150000E94E30380911201B8010E946A0380911A
:100160000E01B6010E946A031F910F91FF90DF906C
:10017000CF9008950E94F802209118013091190142
:1001800040911A0150911B0162177307840795076C
:1001900018F1265F3F4F4F4F5F4F20931801309368
:1001A000190140931A0150931B0180912401882367
:1001B00019F081508093240180911601882361F009
:1001C000815080931601882339F489E180931601C8
:1001D00085B190E2892785B910921D0110921C010A
:1001E00010921F0110921E01809100010E943004A4
:1001F000892B31F481E090E090931D0180931C01E4
:10020000809102010E943004892B49F480911C01E5
:1002100090911D01029690931D0180931C01809185
:1002200004010E943004892B49F480911C019091B3
:100230001D01049690931D0180931C01809106017D
:100240000E943004892B31F481E090E090931F01EB
:1002500080931E01809108010E943004892B49F48B
:1002600080911E0190911F01029690931F0180932F
:100270001E0180910A010E943004892B49F480916B
:100280001E0190911F01049690931F0180931E01FF
:1002900080911E0190911F01892B09F08AC08091E5
:1002A0002401882309F085C08091200190912101CB
:1002B0000A970CF07CC08091220190912301019754
:1002C000A9F42091140130911501C90144E0880F6F
:1002D000991F4A95E1F7821B930B6AE070E00E9438
:1002E0007F04CB01B90140E00E9498008091220177
:1002F000909123010397B1F42091140130911501DD
:10030000C901880F991F820F931F880F991F880FAB
:10031000991F6AE070E00E947F04CB01B90140E0C0
:100320000E94980080912201909123010497A1F4EA
:100330002091140130911501C901F4E0880F991F33
:10034000FA95E1F7821B930B6AE070E00E947F044C
:10035000C90140E00E949800809122019091230100
:100360000697A9F42091140130911501C901880F55
:10037000991F820F931F880F991F880F991F6AE09A
:1003800070E00E947F04C90140E00E94980068E28A
:1003900070E080E090E00E9406038091200190913F
:1003A00021010196909321018093200102C00E94B7
:1003B000800020911E0130911F012115310521F18E
:1003C00030932301209322011092210110922001E9
:1003D00082E38093240121303105B1F40E948D0025
:1003E000609114017091150180910E010E946A03C1
:1003F0008091120160E070E00E946A0362E370E0A5
:1004000080E090E00E94060380911E0190911F0100
:100410008230910511F0079771F460911401709189
:100420001501CB0141E00E94980062E370E080E09A
:1004300090E00E94060380911E0190911F01039796
:10044000F9F40E9480000E948D00209114013091E7
:100450001501C901880F991F820F931F880F991FDB
:10046000880F991F6AE070E00E947F0480910E015E
:100470000E946A0362E370E080E090E00E9406035D
:1004800080911E0190911F010497B1F40E948D008C
:100490006091140170911501809112010E946A030C
:1004A00080910E0160E070E00E946A0362E370E0F8
:1004B00080E090E00E94060380911E0190911F0150
:1004C0000697F9F40E9480000E948D00209114018B
:1004D00030911501C901880F991F820F931F880F52
:1004E000991F880F991F6AE070E00E947F04809135
:1004F00012010E946A0362E370E080E090E00E94D3
:100500000603089580910C0161E00E94C30380916D
:100510000E0161E00E94C3038091100161E00E941E
:10052000C3038091120161E00E94C3038DE061E08A
:100530000E94C3030E94F802665F7F4F8F4F9F4F58
:10054000609318017093190180931A0190931B0115
:1005500008950E9430030E9482020E94BA00FDCFDB
:100560001F920F920FB60F9211242F933F938F93E8
:100570009F93AF93BF938091290190912A01A091FD
:100580002B01B0912C0130912D010196A11DB11DBF
:10059000232F2D5F2D3720F02D570196A11DB11D62
:1005A00020932D018093290190932A01A0932B0180
:1005B000B0932C018091250190912601A0912701F3
:1005C000B09128010196A11DB11D80932501909342
:1005D0002601A0932701B0932801BF91AF919F916D
:1005E0008F913F912F910F900FBE0F901F901895F4
:1005F0008FB7F8942091290130912A0140912B0165
:1006000050912C018FBFB901CA010895EF92FF925A
:100610000F931F937B018C018FB7F89440912901B0
:1006200050912A0160912B0170912C018FBF2FB73F
:10063000F8948091290190912A01A0912B01B09109
:100640002C012FBF841B950BA60BB70BE816F906E0
:100650000A071B0760F71F910F91FF90EF90089515
:10066000789484B5826084BD84B5816084BD85B58D
:10067000826085BD85B5816085BDEEE6F0E0808154
:1006800081608083E1E8F0E0808182608083808106
:1006900081608083E0E8F0E0808181608083E1EB2D
:1006A000F0E0808184608083E0EBF0E08081816015
:1006B0008083EAE7F0E080818460808380818260CB
:1006C00080838081816080838081806880831092B4
:1006D000C10008951F93CF93DF93182FEB0161E0C2
:1006E0000E94C303E12FF0E0E255FF4F8491833075
:1006F00051F480918000806880938000D0938900BD
:10070000C09388003CC0843051F4809180008062A6
:1007100080938000D0938B00C0938A0030C08130DA
:1007200039F4209729F184B5806884BDC7BD27C0FE
:10073000823039F42097E1F084B5806284BDC8BD71
:100740001EC0863041F48091B00080688093B00074
:10075000C093B30014C0873041F48091B000806230
:100760008093B000C093B4000AC0C038D1051CF417
:10077000812F60E002C0812F61E00E94E303DF91DE
:10078000CF911F910895282F30E0C90186569F4FC1
:10079000FC0194912A573F4FF9018491882391F0ED
:1007A000E82FF0E0EE0FFF1FE859FF4FA591B4913D
:1007B000662329F48C91909589238C9308958C91CC
:1007C000892B8C930895482F50E0CA0182559F4F82
:1007D000FC012491CA0186569F4FFC0194914A570F
:1007E0005F4FFA0134913323D1F1222331F12330C9
:1007F00021F4809180008F7705C0243031F48091FE
:1008000080008F7D8093800018C0213019F484B55A
:100810008F7704C0223021F484B58F7D84BD0DC054
:10082000263021F48091B0008F7705C0273029F45D
:100830008091B0008F7D8093B000E32FF0E0EE0F49
:10084000FF1FEE58FF4FA591B491662329F48C91B8
:10085000909589238C9308958C91892B8C9308957E
:10086000682F70E0CB0182559F4FFC012491CB0192
:1008700086569F4FFC0144916A577F4FFB0194912C
:10088000992319F420E030E038C0222331F12330DD
:1008900021F4809180008F7705C0243031F480915D
:1008A00080008F7D8093800018C0213019F484B5BA
:1008B0008F7704C0223021F484B58F7D84BD0DC0B4
:1008C000263021F48091B0008F7705C0273029F4BD
:1008D0008091B0008F7D8093B000892F90E0880FC9
:1008E000991F84589F4FFC01A591B4918C9120E0F1
:1008F00030E0842311F021E030E0C901089597FB36
:10090000092E07260AD077FD04D00CD006D000208F
:100910001AF4709561957F4F0895F6F7909581953B
:100920009F4F0895AA1BBB1B51E107C0AA1FBB1F05
:10093000A617B70710F0A61BB70B881F991F5A956B
:10094000A9F780959095BC01CD010895F894FFCF4B
:10095000020003000400050006000700080009006B
:080960000B000A005A00190007
:00000001FF
