:100000000C9461000C947E000C947E000C947E0095
:100010000C947E000C947E000C947E000C947E0068
:100020000C947E000C947E000C947E000C947E0058
:100030000C947E000C947E000C947E000C947E0048
:100040000C941F020C947E000C947E000C947E0095
:100050000C947E000C947E000C947E000C947E0028
:100060000C947E000C947E00000000002400270009
:100070002A0000000000250028002B0000000000DE
:1000800023002600290004040404040404040202DA
:100090000202020203030303030301020408102007
:1000A0004080010204081020010204081020000012
:1000B0000007000201000003040600000000000029
:1000C000000011241FBECFEFD4E0DEBFCDBF11E092
:1000D000A0E0B1E0EAE6F9E002C005900D92A83197
:1000E000B107D9F711E0A8E1B1E001C01D92A53236
:1000F000B107E1F70E9418020C94B3040C940000BD
:10010000A0E0B0E0E6E8F0E00C948404EC01A88004
:10011000B980CA80DB80A114B104C104D10441F4C8
:1001200084E2A82E89EDB82E8BE5C82E87E0D82E64
:10013000C601B5012DE133EF41E050E00E943F04DC
:1001400027EA31E440E050E00E9420047B018C016A
:10015000C601B5012DE133EF41E050E00E943F04BC
:10016000CA01B9012CEE34EF4FEF5FEF0E9420047B
:100170006E0D7F1D801F911F97FF04C0615070405E
:1001800080409048688379838A839B839B01AC017C
:100190005F77B901CA01CDB7DEB7EAE00C94A004DD
:1001A0000E948000089580E091E00E948000089500
:1001B0006093000170930101809302019093030109
:1001C0000895EF92FF921F937C01162F80911001EA
:1001D0000E94440380911401612F0E944403809186
:1001E0001201B7010E94CB0280911601B7010E9453
:1001F000CB021F91FF90EF90089586E490E061E0BC
:100200000E94E100109219011092180180910401DE
:100210000E949103892B31F481E090E090931901C1
:1002200080931801809106010E949103892B49F463
:100230008091180190911901029690931901809371
:100240001801809108010E949103892B49F4809143
:100250001801909119010496909319018093180147
:100260008091180190911901892B49F410921B017A
:1002700010921A0186E990E061E00E94E10080910D
:10028000180190911901029731F080911A01909113
:100290001B0140976CF186E990E060E00E94E1006C
:1002A00064EF71E080E090E00E94670261E070E03E
:1002B00080E090E028EE33E040E050E00E9402044D
:1002C000655F7140804090401CF08091100102C039
:1002D0008091140161E00E94440364EF71E080E0CA
:1002E00090E00E94670286E490E061E00E94E100F5
:1002F00080911801909119010197A9F48091120140
:1003000066E970E00E94CB0264E670E080E090E075
:100310000E94670280911A0190911B0101969093AF
:100320001B0180931A018091180190911901039784
:10033000A9F48091120164E670E00E94CB0264E6A9
:1003400070E080E090E00E94670280911A01909135
:100350001B01019690931B0180931A018091180153
:10036000909119010497A9F48091160166E970E053
:100370000E94CB0264E670E080E090E00E94670299
:1003800080911A0190911B01019690931B0180931B
:100390001A0180911801909119010697A9F4809192
:1003A000160164E670E00E94CB0264E670E080E033
:1003B00090E00E94670280911A0190911B010196C2
:1003C00090931B0180931A0108958091040160E0CD
:1003D0000E9424038091060160E00E942403809122
:1003E000080160E00E94240380910A0160E00E94FD
:1003F000240380910C0160E00E94240380910E018F
:1004000060E00E9424038091100161E00E942403B7
:100410008091120161E00E9424038091140161E047
:100420000E9424038091160161E00E942403089534
:100430000E9491020E94E5010E94FD00FDCF1F92E3
:100440000F920FB60F9211242F933F938F939F9388
:10045000AF93BF938091200190912101A09122013F
:10046000B0912301309124010196A11DB11D232FCC
:100470002D5F2D3720F02D570196A11DB11D209322
:1004800024018093200190932101A0932201B09335
:10049000230180911C0190911D01A0911E01B0913A
:1004A0001F010196A11DB11D80931C0190931D0198
:1004B000A0931E01B0931F01BF91AF919F918F91A7
:1004C0003F912F910F900FBE0F901F901895EF92B4
:1004D000FF920F931F937B018C018FB7F89440918B
:1004E00020015091210160912201709123018FBF61
:1004F0002FB7F8948091200190912101A0912201C1
:10050000B09123012FBF841B950BA60BB70BE816E8
:10051000F9060A071B0760F71F910F91FF90EF90F4
:100520000895789484B5826084BD84B5816084BD6B
:1005300085B5826085BD85B5816085BDEEE6F0E05C
:10054000808181608083E1E8F0E080818260808347
:10055000808181608083E0E8F0E080818160808339
:10056000E1EBF0E0808184608083E0EBF0E080816B
:1005700081608083EAE7F0E080818460808380810D
:1005800082608083808181608083808180688083B5
:100590001092C10008951F93CF93DF93182FEB01A2
:1005A00061E00E942403E12FF0E0E255FF4F8491C7
:1005B000833051F480918000806880938000D093D4
:1005C0008900C09388003CC0843051F48091800041
:1005D000806280938000D0938B00C0938A0030C0EB
:1005E000813039F4209729F184B5806884BDC7BD76
:1005F00027C0823039F42097E1F084B5806284BD51
:10060000C8BD1EC0863041F48091B00080688093E0
:10061000B000C093B30014C0873041F48091B000A3
:1006200080628093B000C093B4000AC0C038D10586
:100630001CF4812F60E002C0812F61E00E9444031E
:10064000DF91CF911F910895282F30E0C901865680
:100650009F4FFC0194912A573F4FF90184918823C1
:1006600091F0E82FF0E0EE0FFF1FE859FF4FA59142
:10067000B491662329F48C91909589238C930895E5
:100680008C91892B8C930895482F50E0CA01825594
:100690009F4FFC012491CA0186569F4FFC01949103
:1006A0004A575F4FFA0134913323D1F1222331F1BC
:1006B000233021F4809180008F7705C0243031F4FD
:1006C000809180008F7D8093800018C0213019F4C4
:1006D00084B58F7704C0223021F484B58F7D84BD2A
:1006E0000DC0263021F48091B0008F7705C02730EF
:1006F00029F48091B0008F7D8093B000E32FF0E06B
:10070000EE0FFF1FEE58FF4FA591B491662329F419
:100710008C91909589238C9308958C91892B8C933F
:100720000895682F70E0CB0182559F4FFC01249102
:10073000CB0186569F4FFC0144916A577F4FFB01C6
:100740009491992319F420E030E038C0222331F14C
:10075000233021F4809180008F7705C0243031F45C
:10076000809180008F7D8093800018C0213019F423
:1007700084B58F7704C0223021F484B58F7D84BD89
:100780000DC0263021F48091B0008F7705C027304E
:1007900029F48091B0008F7D8093B000892F90E084
:1007A000880F991F84589F4FFC01A591B4918C919B
:1007B00020E030E0842311F021E030E0C901089509
:1007C000EF92FF920F931F937B018C0161157105CE
:1007D0008105910529F420E030E040E050E00BC0B5
:1007E0000E94D300A80197010E943F04AC01CB01F5
:1007F000DA019C01AD01B901CA011F910F91FF906F
:10080000EF900895EF92FF920F931F937B018C015D
:10081000621773078407950764F4261B370B480B90
:10082000590BCA01B9010E94E003E60EF71E081F2A
:10083000191FB701C8011F910F91FF90EF90089504
:10084000629FD001739FF001829FE00DF11D649FB4
:10085000E00DF11D929FF00D839FF00D749FF00D40
:10086000659FF00D9927729FB00DE11DF91F639FE1
:10087000B00DE11DF91FBD01CF011124089597FBB3
:10088000092E05260ED057FD04D014D00AD0001C26
:1008900038F450954095309521953F4F4F4F5F4F1D
:1008A0000895F6F790958095709561957F4F8F4FDD
:1008B0009F4F0895A1E21A2EAA1BBB1BFD010DC07C
:1008C000AA1FBB1FEE1FFF1FA217B307E407F50700
:1008D00020F0A21BB30BE40BF50B661F771F881FDC
:1008E000991F1A9469F760957095809590959B0172
:1008F000AC01BD01CF0108952F923F924F925F92BC
:100900006F927F928F929F92AF92BF92CF92DF921F
:10091000EF92FF920F931F93CF93DF93CDB7DEB784
:10092000CA1BDB0B0FB6F894DEBF0FBECDBF099418
:100930002A88398848885F846E847D848C849B846F
:10094000AA84B984C884DF80EE80FD800C811B817D
:10095000AA81B981CE0FD11D0FB6F894DEBF0FBEAC
:0A096000CDBFED010895F894FFCF1C
:10096A000100000002000300040005000600070061
:08097A00080009000B000A004F
:00000001FF
